{
  "contractName": "TaskContract",
  "abi": [
    {
      "anonymous": false,
      "inputs": [
        {
          "indexed": false,
          "internalType": "address",
          "name": "recipient",
          "type": "address"
        },
        {
          "indexed": false,
          "internalType": "uint256",
          "name": "taskId",
          "type": "uint256"
        }
      ],
      "name": "AddTaskEvent",
      "type": "event"
    },
    {
      "anonymous": false,
      "inputs": [
        {
          "indexed": false,
          "internalType": "uint256",
          "name": "taskId",
          "type": "uint256"
        },
        {
          "indexed": false,
          "internalType": "bool",
          "name": "isCompleted",
          "type": "bool"
        }
      ],
      "name": "DeleteTaskEvent",
      "type": "event"
    },
    {
      "inputs": [
        {
          "internalType": "string",
          "name": "taskText",
          "type": "string"
        },
        {
          "internalType": "bool",
          "name": "isCompleted",
          "type": "bool"
        }
      ],
      "name": "addTask",
      "outputs": [],
      "stateMutability": "nonpayable",
      "type": "function"
    },
    {
      "inputs": [],
      "name": "getMyTasks",
      "outputs": [
        {
          "components": [
            {
              "internalType": "uint256",
              "name": "id",
              "type": "uint256"
            },
            {
              "internalType": "string",
              "name": "taskText",
              "type": "string"
            },
            {
              "internalType": "bool",
              "name": "isCompleted",
              "type": "bool"
            }
          ],
          "internalType": "struct TaskContract.Task[]",
          "name": "",
          "type": "tuple[]"
        }
      ],
      "stateMutability": "view",
      "type": "function"
    },
    {
      "inputs": [],
      "name": "getTaskCount",
      "outputs": [
        {
          "internalType": "uint256",
          "name": "",
          "type": "uint256"
        }
      ],
      "stateMutability": "view",
      "type": "function"
    },
    {
      "inputs": [
        {
          "internalType": "uint256",
          "name": "taskId",
          "type": "uint256"
        },
        {
          "internalType": "bool",
          "name": "isCompleted",
          "type": "bool"
        }
      ],
      "name": "deleteTask",
      "outputs": [],
      "stateMutability": "nonpayable",
      "type": "function"
    }
  ],
  "bytecode": "0x608060405234801561001057600080fd5b50610ebf806100206000396000f3fe608060405234801561001057600080fd5b506004361061004c5760003560e01c806320df4581146100515780636e13f8181461006d578063aaba29071461008b578063c17a340e146100a7575b600080fd5b61006b60048036038101906100669190610968565b6100c5565b005b6100756101ef565b6040516100829190610b86565b60405180910390f35b6100a560048036038101906100a09190610bd4565b6104df565b005b6100af61062c565b6040516100bc9190610c23565b60405180910390f35b60008080549050905060006040518060600160405280838152602001858152602001841515815250908060018154018082558091505060019003906000526020600020906003020160009091909190915060008201518160000155602082015181600101908051906020019061013c929190610710565b5060408201518160020160006101000a81548160ff0219169083151502179055505050336001600083815260200190815260200160002060006101000a81548173ffffffffffffffffffffffffffffffffffffffff021916908373ffffffffffffffffffffffffffffffffffffffff1602179055507fc94a9762f4f8f54f49a3fd4d4dd3a374a8a896f73ecdf4e49d7bfb174521e47c33826040516101e2929190610c7f565b60405180910390a1505050565b60606000808054905067ffffffffffffffff81111561021157610210610805565b5b60405190808252806020026020018201604052801561024a57816020015b610237610796565b81526020019060019003908161022f5790505b5090506000805b600080549050811015610425573373ffffffffffffffffffffffffffffffffffffffff166001600083815260200190815260200160002060009054906101000a900473ffffffffffffffffffffffffffffffffffffffff1673ffffffffffffffffffffffffffffffffffffffff161480156102fc5750600081815481106102db576102da610ca8565b5b906000526020600020906003020160020160009054906101000a900460ff16155b15610412576000818154811061031557610314610ca8565b5b90600052602060002090600302016040518060600160405290816000820154815260200160018201805461034890610d06565b80601f016020809104026020016040519081016040528092919081815260200182805461037490610d06565b80156103c15780601f10610396576101008083540402835291602001916103c1565b820191906000526020600020905b8154815290600101906020018083116103a457829003601f168201915b505050505081526020016002820160009054906101000a900460ff1615151515815250508383815181106103f8576103f7610ca8565b5b6020026020010181905250818061040e90610d66565b9250505b808061041d90610d66565b915050610251565b5060008167ffffffffffffffff81111561044257610441610805565b5b60405190808252806020026020018201604052801561047b57816020015b610468610796565b8152602001906001900390816104605790505b50905060005b828110156104d55783818151811061049c5761049b610ca8565b5b60200260200101518282815181106104b7576104b6610ca8565b5b602002602001018190525080806104cd90610d66565b915050610481565b5080935050505090565b3373ffffffffffffffffffffffffffffffffffffffff166001600084815260200190815260200160002060009054906101000a900473ffffffffffffffffffffffffffffffffffffffff1673ffffffffffffffffffffffffffffffffffffffff1614610580576040517f08c379a000000000000000000000000000000000000000000000000000000000815260040161057790610e31565b60405180910390fd5b806000838154811061059557610594610ca8565b5b906000526020600020906003020160020160006101000a81548160ff0219169083151502179055507f12421f3ac7f32a6f9c90d10516fd3ad81a755f50e2ad7aa93b13eec03a8fd96e82600084815481106105f3576105f2610ca8565b5b906000526020600020906003020160020160009054906101000a900460ff16604051610620929190610e60565b60405180910390a15050565b6000806000905060005b600080549050811015610708573373ffffffffffffffffffffffffffffffffffffffff166001600083815260200190815260200160002060009054906101000a900473ffffffffffffffffffffffffffffffffffffffff1673ffffffffffffffffffffffffffffffffffffffff161480156106e15750600081815481106106c0576106bf610ca8565b5b906000526020600020906003020160020160009054906101000a900460ff16155b156106f55781806106f190610d66565b9250505b808061070090610d66565b915050610636565b508091505090565b82805461071c90610d06565b90600052602060002090601f01602090048101928261073e5760008555610785565b82601f1061075757805160ff1916838001178555610785565b82800160010185558215610785579182015b82811115610784578251825591602001919060010190610769565b5b50905061079291906107b9565b5090565b604051806060016040528060008152602001606081526020016000151581525090565b5b808211156107d25760008160009055506001016107ba565b5090565b6000604051905090565b600080fd5b600080fd5b600080fd5b600080fd5b6000601f19601f8301169050919050565b7f4e487b7100000000000000000000000000000000000000000000000000000000600052604160045260246000fd5b61083d826107f4565b810181811067ffffffffffffffff8211171561085c5761085b610805565b5b80604052505050565b600061086f6107d6565b905061087b8282610834565b919050565b600067ffffffffffffffff82111561089b5761089a610805565b5b6108a4826107f4565b9050602081019050919050565b82818337600083830152505050565b60006108d36108ce84610880565b610865565b9050828152602081018484840111156108ef576108ee6107ef565b5b6108fa8482856108b1565b509392505050565b600082601f830112610917576109166107ea565b5b81356109278482602086016108c0565b91505092915050565b60008115159050919050565b61094581610930565b811461095057600080fd5b50565b6000813590506109628161093c565b92915050565b6000806040838503121561097f5761097e6107e0565b5b600083013567ffffffffffffffff81111561099d5761099c6107e5565b5b6109a985828601610902565b92505060206109ba85828601610953565b9150509250929050565b600081519050919050565b600082825260208201905092915050565b6000819050602082019050919050565b6000819050919050565b610a03816109f0565b82525050565b600081519050919050565b600082825260208201905092915050565b60005b83811015610a43578082015181840152602081019050610a28565b83811115610a52576000848401525b50505050565b6000610a6382610a09565b610a6d8185610a14565b9350610a7d818560208601610a25565b610a86816107f4565b840191505092915050565b610a9a81610930565b82525050565b6000606083016000830151610ab860008601826109fa565b5060208301518482036020860152610ad08282610a58565b9150506040830151610ae56040860182610a91565b508091505092915050565b6000610afc8383610aa0565b905092915050565b6000602082019050919050565b6000610b1c826109c4565b610b2681856109cf565b935083602082028501610b38856109e0565b8060005b85811015610b745784840389528151610b558582610af0565b9450610b6083610b04565b925060208a01995050600181019050610b3c565b50829750879550505050505092915050565b60006020820190508181036000830152610ba08184610b11565b905092915050565b610bb1816109f0565b8114610bbc57600080fd5b50565b600081359050610bce81610ba8565b92915050565b60008060408385031215610beb57610bea6107e0565b5b6000610bf985828601610bbf565b9250506020610c0a85828601610953565b9150509250929050565b610c1d816109f0565b82525050565b6000602082019050610c386000830184610c14565b92915050565b600073ffffffffffffffffffffffffffffffffffffffff82169050919050565b6000610c6982610c3e565b9050919050565b610c7981610c5e565b82525050565b6000604082019050610c946000830185610c70565b610ca16020830184610c14565b9392505050565b7f4e487b7100000000000000000000000000000000000000000000000000000000600052603260045260246000fd5b7f4e487b7100000000000000000000000000000000000000000000000000000000600052602260045260246000fd5b60006002820490506001821680610d1e57607f821691505b602082108103610d3157610d30610cd7565b5b50919050565b7f4e487b7100000000000000000000000000000000000000000000000000000000600052601160045260246000fd5b6000610d71826109f0565b91507fffffffffffffffffffffffffffffffffffffffffffffffffffffffffffffffff8203610da357610da2610d37565b5b600182019050919050565b600082825260208201905092915050565b7f596f7520617265206e6f7420746865206f776e6572206f66207468697320746160008201527f736b000000000000000000000000000000000000000000000000000000000000602082015250565b6000610e1b602283610dae565b9150610e2682610dbf565b604082019050919050565b60006020820190508181036000830152610e4a81610e0e565b9050919050565b610e5a81610930565b82525050565b6000604082019050610e756000830185610c14565b610e826020830184610e51565b939250505056fea2646970667358221220735f4fe9515530c212ef72735cc67e2d851ca191341532b1ef0dc1d3c8eecc5e64736f6c634300080e0033",
  "immutableReferences": {},
  "source": "// SPDX-License-Identifier: MIT\npragma solidity >=0.4.22 <0.9.0;\n\ncontract TaskContract {\n    event AddTaskEvent(address recipient, uint256 taskId);\n    event DeleteTaskEvent(uint256 taskId, bool isCompleted);\n\n    struct Task {\n        uint256 id;\n        string taskText;\n        bool isCompleted;\n    }\n\n    Task[] private tasks;\n\n    mapping(uint256 => address) taskToOwner;\n\n    function addTask(string memory taskText, bool isCompleted) external {\n        uint256 id = tasks.length;\n        tasks.push(Task(id, taskText, isCompleted));\n        taskToOwner[id] = msg.sender;\n        emit AddTaskEvent(msg.sender, id);\n    }\n\n    function getMyTasks() external view returns (Task[] memory) {\n        Task[] memory temp = new Task[](tasks.length);\n\n        uint256 counter = 0;\n\n        for (uint256 i = 0; i < tasks.length; i++) {\n            if (taskToOwner[i] == msg.sender && !tasks[i].isCompleted) {\n                temp[counter] = tasks[i];\n                counter++;\n            }\n        }\n\n        Task[] memory result = new Task[](counter);\n\n        for (uint256 i = 0; i < counter; i++) {\n            result[i] = temp[i];\n        }\n\n        return result;\n    }\n\n    function getTaskCount() external view returns (uint256) {\n        uint256 counter = 0;\n\n        for (uint256 i = 0; i < tasks.length; i++) {\n            if (taskToOwner[i] == msg.sender && !tasks[i].isCompleted) {\n                counter++;\n            }\n        }\n\n        return counter;\n    }\n\n    function deleteTask(uint256 taskId, bool isCompleted) external {\n        require(\n            taskToOwner[taskId] == msg.sender,\n            \"You are not the owner of this task\"\n        );\n\n        tasks[taskId].isCompleted = isCompleted;\n\n        emit DeleteTaskEvent(taskId, tasks[taskId].isCompleted);\n    }\n}\n",
  "sourcePath": "D:\\projects\\web3.0\\todo-app\\truffle\\contracts\\TaskContract.sol",
  "compiler": {
    "name": "solc",
    "version": "0.8.14+commit.80d49f37.Emscripten.clang"
  },
  "schemaVersion": "3.4.10",
  "updatedAt": "2022-10-14T17:08:39.461Z",
  "devdoc": {
    "kind": "dev",
    "methods": {},
    "version": 1
  },
  "userdoc": {
    "kind": "user",
    "methods": {},
    "version": 1
  }
}